:100000000C942A000C9447000C9447000C94470071
:100010000C9447000C9447000C9447000C946A051C
:100020000C9447000C9447000C9447000C94470034
:100030000C9447000C9447000C9447000C94470024
:100040000C9447000C9447000C9447000C94470014
:100050000C94470011241FBECFE5D8E0DEBFCDBF12
:1000600011E0A0E6B0E0E4E0FCE002C005900D92F3
:10007000AE38B107D9F721E0AEE8B1E001C01D927A
:10008000A13DB207E1F70E94A8030C9400060C946E
:10009000000017B887B1806487B916B886B1876049
:1000A00086B986B1806886B9089597B1987F97B967
:1000B00097B1892B87B986B1806486B9349BFECF0E
:1000C00084B195B108958F92AF92CF92EF920F9332
:1000D000CF93DF93CDB7DEB7FC0171836083538389
:1000E00042832483DB013C9181E090E002C0880FD1
:1000F000991F2A95E2F7809583238C930583E682E6
:10010000C782A08681868A858287DF91CF910F91F1
:10011000EF90CF90AF908F900895FA010CC090812E
:1001200021E030E0082E02C0220F331F0A94E2F7CC
:10013000292B20838F5F861790F30895CF93DF9349
:10014000EC01E881F98120816C8130E0062E02C04B
:10015000359527950A94E2F720FD22C08E818D8384
:10016000EA81FB8180810E9435048E8398859F837C
:100170009D8189130AC09985943010F49F5F9987F7
:100180009985943021F4888702C081E089878F8126
:10019000811106C08885813019F48A850E94500239
:1001A000DF91CF91089586EB91E00E949E0080EA56
:1001B00091E00E949E008BEA91E00E949E0085E9FA
:1001C00091E00E949E0008950F931F93CF93DF93B9
:1001D000EC018B018B81811106C081E08B830E9431
:1001E000450310928E01898180938E01C1E01FC06A
:1001F00060E080E00E943D0360E0C8010E94CF05FE
:100200000E94BD0260E080918E010E943D036091DA
:100210008E01C8010E94CF050E94BD0260E08C2FB4
:100220000E943D0387ED90E00E94BD02CF5F809168
:100230008E01C817E8F2DF91CF911F910F910895B9
:10024000FC0182810E943D0389ED90E00E94BD0285
:100250000895CF93DF93D82FC0E009C06D2F8C2F66
:100260000E943D0389ED90E00E94BD02CF5FC03146
:10027000A8F3DF91CF910895CF93C82F842F0E94C8
:100280003D038C2F90E00E94CA02CF9108950F93F6
:100290001F93CF93DF93CDB7DEB76B970FB6F8946C
:1002A000DEBF0FBECDBF8C01613089F48CE0E6E982
:1002B000F0E0DE01509601900D928A95E1F7BE01C3
:1002C000605F7F4FCE0101960E94EA0512C0611166
:1002D00010C08BE0E3EAF0E0DE01509601900D9251
:1002E0008A95E1F7BE01605F7F4FCE0101960E94C3
:1002F000EA05F8018581811108C00E94290181E089
:100300000E94290181E0F8018583F801868181112D
:1003100037C080819181019691838083059780F118
:10032000118210828481882339F060E081500E941C
:100330003D0380E20E94B70260E0F80184810E94E0
:100340003D03F8018281E1E0F0E0EC0FFD1FE80FD2
:10035000F11D80810E94B702F80184818F5F848340
:100360009381981768F414828281882319F0815050
:10037000828303C081E0F80186839150F801938362
:100380006B960FB6F894DEBF0FBECDBFDF91CF9155
:100390001F910F91089580917000811106C060E057
:1003A00080E690E00E9447010895813029F461E0E1
:1003B00087E690E00E9447010895FC01613021F436
:1003C0008BE08283838305C0611103C08AE082834E
:1003D0008383118210821482158216820895CF932E
:1003E000C82F80917200813019F48C2F0E94D304A1
:1003F00080917100882309F451C080918F0181118F
:100400000BC061EC71E082E990E00E94E4004FE0F3
:1004100061E086E00E943C0180917600811108C075
:1004200080917500811104C080917300882351F080
:1004300080917000823031F481E080938F018C2FA5
:100440000E94D304C3FF28C08C2F0E94D304809144
:100450007400882309F110928F01EFE6F0E082E04A
:1004600081831092740010820E94790580E00E94BE
:10047000290181E00E94290162E970E081E790E0B2
:100480000E944B0561E087E690E00E94DD0160E09C
:1004900080E690E00E94DD010E94CB01CF9108959B
:1004A00080FF04C081E080939001089581FF04C023
:1004B00082E080939001089582FF04C084E08093DD
:1004C0009001089583FF03C088E080939001089510
:1004D00080919001089510929001089580FF04C0CA
:1004E00095B3906195BB03C095B39F7E95BB81FF8B
:1004F00004C095B3906295BB03C095B39F7D95BB37
:1005000082FF04C095B3906495BB03C095B39F7BF5
:1005100095BB83FF04C085B3806885BB089585B310
:100520008F7785BB0895CF93C82F85B3886085BB2F
:100530008C2F82958F700E946E0285B3877F85BB5A
:1005400085B3886085BB8C2F0E946E0285B3877F40
:1005500085BB87EC90E00197F1F700C00000CF91D8
:10056000089595B39B7F95BB0E949302089595B320
:10057000946095BB0E9493020895CF93DF93EC01A2
:1005800003C021960E94B70288818111FACFDF91C2
:10059000CF910895CF93DF93CDB7DEB72C970FB6E9
:1005A000F894DEBF0FBECDBFFC0140E050E09F01DC
:1005B000ADECBCEC0E94DB059695879596958795EA
:1005C000969587959C01220F331F880F991F880FDE
:1005D000991F880F991F820F931F9F01281B390BAA
:1005E000C901A1E0B0E0AC0FBD1FA40FB51F805D35
:1005F0008C939F01ADECBCEC0E94DB05FC01F695F1
:10060000E795F695E795F695E7954F5F5F4F30973D
:1006100071F6E1E0F0E0EC0FFD1FE40FF51F108232
:10062000E7E0F0E0EC0FFD1FE40FF51F108280E023
:1006300090E013C0FA01E81BF90B319721E030E09C
:100640002C0F3D1FE20FF31F2081E7E0F0E0EC0FDD
:10065000FD1FE80FF91F208301968417950750F3BB
:10066000CE0107960E94BD022C960FB6F894DEBF0D
:100670000FBECDBFDF91CF91089590E4699F800DAB
:10068000112480680E94B102089581E00E94B102A5
:100690008FE39FE10197F1F700C000000895CF9329
:1006A00084B3806184BB84B3806284BB84B3806480
:1006B00084BB84B3806884BB84B3886084BB84B308
:1006C000846084BB8FE59AEE0197F1F700C00000CB
:1006D00085B38B7F85BB85B3877F85BBC0E010C0AA
:1006E00085B3886085BB83E00E946E0285B3877FF7
:1006F00085BB8FE19EE40197F1F700C00000CF5F5A
:10070000C33070F385B3886085BB82E00E946E02BF
:1007100085B3877F85BB8FE99FE00197F1F700C024
:10072000000088E20E94B10288E00E94B10281E0EC
:100730000E94B1028FE39FE10197F1F700C0000032
:1007400086E00E94B1028CE00E94B102CF91089530
:10075000CF93DF93CDB7DEB7AA970FB6F894DEBF7D
:100760000FBECDBF88E2EFEAF0E0DE011196019006
:100770000D928A95E1F70E94280410E000E0809134
:1007800091018823E1F3109291010F5F1F5F023303
:1007900019F40E94440400E01A3089F70E943D04D5
:1007A00040919401BE016F5F7F4FCE0189960E94F8
:1007B000AC0582E990E00E94BD0510E0E0CF8F9289
:1007C000AF92CF92EF920F9381E08F93812CAA2466
:1007D000A394CC24C394EE24E39401E020E040E30E
:1007E00050E061E370E086EB91E00E94630082E0FC
:1007F0008F9321E040E350E061E370E080EA91E014
:100800000E94630084E08F9322E040E350E061E3C4
:1008100070E08BEA91E00E94630088E08F9323E010
:1008200040E350E061E370E085E991E00E946300FD
:1008300042E350E064E080E00E948D000F900F9052
:100840000F900F900F91EF90CF90AF908F900895F1
:100850000E94DF030E9449000E944F030E9445034B
:100860000E9456050E947905089590E002C0959572
:1008700087956A95E2F7817008950E94A00580939C
:1008800093010E94D30008950E9468020E94EF0124
:100890000895EF92FF920F93CF93DF937C01CB01EA
:1008A000EA01622F0E94CF05FC019081C00FD11D8B
:1008B0008881981304C081E0F701868302C0F701A4
:1008C0001682DF91CF910F91FF90EF900895FC0178
:1008D0008281482F50E0218130E0215031094217B8
:1008E00053071CF48F5F8283089581E0809370002A
:1008F0000895FC018681813061F0FB018081815087
:100900008083811103C010927000089582E080936B
:10091000700008950F931F93CF93DF93EB01FC01B9
:1009200022812223E9F036813323D1F0128216820C
:1009300060E08A810E943D030FE610E0F8016081CB
:1009400088E790E00E94CF050E94BD0261E0CE01E1
:100950000E942001CE010E946704F80110820CC0A1
:10096000222351F0FC012681211106C06EE670E0C1
:100970000E94790410926F0061E08A810E943D0319
:1009800060916F0088E790E00E94CF050E94BD0251
:100990004FE061E080916E000E943C01DF91CF91B9
:1009A0001F910F9108950F931F93CF93DF93282FDB
:1009B000217080FF0CC090917000933041F4E1E70A
:1009C000F0E091E09083118292E09093700090911A
:1009D0007100992309F45AC0222399F09091700074
:1009E000923079F4E1E7F0E0148291E09583909100
:1009F0006F00911103C010926F0003C0915090934B
:100A00006F0081FF10C090917000923061F4E1E7B7
:100A1000F0E0158291E0948390916F00993118F481
:100A20009F5F90936F0082FF08C09091700092309A
:100A300021F491E09093730002C01092730083FF41
:100A400003C081E080937400C2E9D0E061E08A8154
:100A50000E943D030FE610E0F801608188E790E016
:100A60000E94CF050E94BD02F80100812A8148E75B
:100A700050E061EC71E081E790E00E944904BE0122
:100A800081E790E00E948A040E946B02DF91CF917F
:100A90001F910F910895FC011682128281E0FB01E3
:100AA0008283138286E080936E000895F8941DBCC3
:100AB0001CBC1FBC1EBC8EB588608EBD8EB581600F
:100AC0008EBD8FE396E09BBD8ABD89B7806189BFEB
:100AD000789408951F920F920FB60F9211248F935E
:100AE00081E0809391018F910F900FBE0F901F9026
:100AF0001895CF93C091930180E00E945500AC01FE
:100B00004C0F511D9A01A9E1B6E80E94DB05281B94
:100B1000390B36952795820F931F929582958F708A
:100B200089279F70892765E1689F9001699F300D33
:100B30001124CA01821B930B80939401CF910895D5
:100B4000809192018F5F80939201853110F0109215
:100B5000920180919201089521EC31E0FC013183F2
:100B6000208350E0440F551FFB01E40FF51F608107
:100B70007181C9010E94EA050895DC0120E090E03E
:100B800005C011969C9311972F5F9F5FE92FF0E0AE
:100B9000EF53FE4F30813111F4CF2C930895860F1F
:100BA000911DBC0141E050E08AED90E00E94F1050A
:100BB0008AED90E00895A29FB001B39FC001A39F6A
:100BC000700D811D1124911DB29F700D811D112486
:100BD000911D0895FB01DC0101900D920020E1F7C9
:100BE0000895FB01DC014150504048F001900D9206
:100BF0000020C9F701C01D9241505040E0F7089510
:040C0000F894FFCF96
:100C040000000A0A00000000000B0B0000000600B0
:100C140003000100000000006162636465666768A8
:100C2400696A6B6C6D6E6F707172737475767778B8
:100C3400797A000001004169206361737469676116
:100C4400742100416920706965726475742100DC47
:100C540000E400F100F800FF000A0112011E012562
:100C6400012D013701400149015001580161016B17
:100C74000173017D0184015F0020200062616E61C7
:100C84006E61730073747261776265727269657301
:100C940000677261706573006170706C65730077D2
:100CA400617465726D656C6F6E006F72616E6765FD
:100CB4007300626C756562657272696573006C6558
:100CC4006D6F6E7300706561636865730070696E43
:100CD400656170706C6500706F7461746F6573002A
:100CE400746F6D61746F6573006F6E696F6E7300FE
:100CF400636172726F74730062726F63636F6C69A5
:100D040000637563756D62657273006C65747475E8
:100D14006365006D757368726F6F6D7300676172E0
:0E0D24006C69630061737061726167757300C2
:00000001FF
